:020000040800F2
:1000000070B20020B5680008290300082B0300081F
:100010002F03000833030008370300080000000026
:100020000000000000000000000000003B0300088A
:100030003D030008000000003F03000841030008E2
:10004000CF680008CF680008CF680008CF680008B4
:10005000CF680008CF680008CF680008CF680008A4
:10006000CF680008A5110008C1110008CF6800087A
:10007000CF680008CF680008CF680008CF68000884
:10008000CF680008CF680008CF680008CF68000874
:10009000CF680008CF680008CF6800084111000849
:1000A000CF680008CF680008CF680008CF68000854
:1000B000CF680008CF68000825120008CF68000844
:1000C000CF680008CF680008CF680008CF68000834
:1000D000CF680008CF68000849030008CF6800080F
:1000E000CF680008CF680008CF680008CF68000814
:1000F000CF680008CF680008CF680008CF68000804
:10010000CF680008CF680008CF680008CF680008F3
:10011000CF680008CF680008CF680008CF680008E3
:10012000CF680008CF680008CF680008CF680008D3
:10013000DFF80CD008F064FC0048004745010008D7
:1001400070B200208AB00026002700BF00F0DEFB5E
:1001500000F0AEFA00F0A7FD02F051FB00F0C9FF7D
:1001600001F0ACF901F0A3F800F014FF06F0EBF990
:10017000B8E0C82000F0D0FA002000F064FD04468A
:10018000E07A30380A2872D2DFE800F005064346EC
:10019000727780898E93A4E05348006840F008008D
:1001A000514908600846006840F0100008600020CF
:1001B0004E4908804E4908804FF4FA7000F0ACFABE
:1001C0004948006800204849086008460068002047
:1001D0000860464802884648018846A008F022FC8C
:1001E000434803884148028844A105A808F02AFC36
:1001F00005A808F01BFA80460023424605A91846C8
:1002000000F0F0FC002301223EA1184600F0EAFCB9
:1002100067E001F081FB64E03B48006808B9002614
:1002200000E001263948006808B9012700E00027EE
:1002300003A904A800F031FFCDE900679DF80C3058
:100240009DF8102032A105A808F0FCFB05A808F0D5
:10025000EDF980460023424605A9184600F0C2FC8D
:100260000023012227A1184600F0BCFC39E037E04A
:1002700001F0E2F801F0F4F833E001F009F901F0DF
:1002800011F901F0D9F801F0F7F82AE001F000F9CE
:1002900001F008F901F0E4F801F0D8F821E001F0EC
:1002A000D5F801F0E9F81CE001F0F2F801F0FAF8F5
:1002B00017E0207B303864214843617B303901EB03
:1002C000810100EB4101A07B3038084485B229460A
:1002D000134807F037FF2946124807F033FF00E0C4
:1002E00000BF00BF45E700000004014004000020FB
:1002F00006000020256425640000000025642C25EC
:10030000640D0A002000000018012442200124424C
:1003100025642C25642C25642C25640D0A0000001E
:10032000002C014000340140704700BFFEE700BFD1
:10033000FEE700BFFEE700BFFEE77047704770476B
:1003400010B500F00AFA10BD10B540F225511B4857
:1003500008F0F8F8D8B1194808F074F8C4B2184891
:10036000B0F80004C0F30E0040F2FF3188420EDA0C
:100370001349B1F80014C1F30E00411C104AB2F841
:10038000002461F30E020E49A1F800240C5440F23F
:1003900024410A4808F0D6F801280DD10848B0F8E1
:1003A000000420F4004000F500400549A1F80004D5
:1003B000024808F047F8C4B210BD000000440040F5
:1003C0005C00002000B585B0012144F2040006F075
:1003D00083FF4FF40070ADF8100018208DF8130063
:1003E00003208DF8120004A9214806F0BFFC4FF449
:1003F0008060ADF8100004208DF8130004A91C489B
:1004000006F0B4FC4FF4E13000900020ADF8040099
:10041000ADF80600ADF80800ADF80C000C20ADF802
:100420000A006946134807F010FF0121114807F040
:1004300098FF05B000BD70B504460D46E1B20D4809
:1004400007F0FCFF00BF80210A4808F065F800288B
:10045000F9D0204670BD10B5044600BF20210548E4
:1004600008F05AF80028F9D0024807F0EBFF10BD59
:10047000000801400038014000B585B0012104208A
:1004800006F02AFF0121480406F033FF0420ADF8EE
:10049000100018208DF8130003208DF8120004A915
:1004A000724806F063FC0820ADF8100004208DF8B7
:1004B000130004A96D4806F059FC4FF41650009043
:1004C0000020ADF80400ADF80600ADF80800ADF866
:1004D0000C000C20ADF80A006946654807F0B5FE2F
:1004E000012240F22551624807F047FF012240F205
:1004F00024415F4807F041FF01215D4807F031FFCB
:1005000005B000BDF0B503460D4616460027294646
:100510000A2E03D0002008702846F0BD33B93020E1
:1005200001F8010B002008702846F6E7002B03DADB
:100530002D2001F8010B5B4242F210720DE093FB9B
:10054000F2F404B937B104F1300001F8010B04FBF7
:10055000123301270A2092FBF0F2002AEFDC002080
:1005600008702846D9E70FB470B586B006460CA8C7
:10057000019073E00B9800785C281CD10B98401C0C
:100580000B9000786E2809D072280FD10D213046CB
:1005900007F054FF0B98401C0B900BE00A213046EB
:1005A00007F04CFF0B98401C0B9003E00B98401C8D
:1005B0000B9000BF4BE00B980078252840D10B989A
:1005C000401C0B900078642818D0732833D1019810
:1005D00010C801900BE02178304607F02FFF00BFD4
:1005E0008021304607F098FF0028F9D0641C20785D
:1005F0000028F0D10B98401C0B9020E0019820C8F7
:1006000001900A2202A92846FFF77CFF02AC0BE00A
:100610002178304607F012FF00BF8021304607F0F6
:100620007BFF0028F9D0641C20780028F0D10B98BB
:10063000401C0B9003E00B98401C0B9000BF06E0A1
:100640000B9810F8011B0B90304607F0F7FE00BF27
:100650008021304607F060FF0028F9D00B98007821
:10066000002887D106B070BC5DF814FB000801407B
:100670000044004008B50121042006F02DFE0320AF
:10068000ADF8000010208DF8030003208DF8020063
:100690006946064806F06AFB0121044806F013FC8F
:1006A0000221024806F00DFC08BD000000080140D0
:1006B00030B5824800684FF47A72B0FBF2F1B1F1C4
:1006C000807F01D301201BE021F07F40401E4FF0CE
:1006D000E022506150170F22002806DA1301784CEF
:1006E00000F00F052D1F635502E01301754C2354D4
:1006F00000BF00204FF0E022906107201061002031
:1007000008B100BFFEE74FF0E020006920F00100D3
:100710004FF0E021086130BD01B56B4900980860D9
:100720004FF0E020006940F001004FF0E021086147
:1007300000BF654800680028FBD108BD002106E025
:100740000A2100BF0A00A1F1010399B2FAD1020007
:10075000A0F1010398B2F3D170475B48006820B163
:1007600059480068401E58490860704701460723F1
:1007700023EA01021202524B0C3B18684FF6FF03AA
:100780001840524B184310434D4B0C3B18607047B8
:100790002DE9F0410746884614461D462846FFF7D6
:1007A000E5FFC5F1040007FA00F60F20284100EA32
:1007B0000800064306F00F06202C0CDA44480168B6
:1007C0004FF0010000FA04F041EA00014FF0E02090
:1007D000C0F800110DE03F480068A4F120014FF07F
:1007E000010202FA01F240EA02004FF0E021C1F8F2
:1007F00004013448005D40EA061032490855BDE85E
:10080000F08170B504460B46CE1701EB9676B0101A
:10081000CE1701EB9676B610A1EB8606B606350E1E
:100820002D4B9B6943F001032B4EB3614FEAB63366
:1008300053F820300F26AE40B343284E46F8203000
:10084000334653F8203004FA05F63343234E46F876
:100850002030234B1E6801238B401E43204B1E601B
:1008600012F0010F08D01E4B0C331B6801268E407E
:1008700033431B4E0C36336012F0020F08D0184B76
:1008800008331B6801268E403343154E083633600B
:1008900070BD01464906104A926942F001020E4BB2
:1008A0009A610E4A083A526822F0E0620B4B083B0C
:1008B0005A601A4652680A435A6070472C0000205A
:1008C00018ED00E000E400E0000000200000FA0560
:1008D00000E100E004E100E00010024008000140F7
:1008E0000004014008B54FF4A06006F0E3F82620AC
:1008F0008DF8000000208DF801008DF80200012025
:100900008DF80300684606F0DAF808BD10B5FFF769
:10091000B1FEFFF757FDFFF7AFFDFFF7E3FF10BD97
:1009200010B50446012C04D10121F94806F0C9FA9A
:1009300003E00121F64806F0C6FA10BD10B5022109
:10094000F34806F0C0FA4FF4FA70FFF7E5FE022113
:10095000EF4806F0B6FA10BD2DE9F04106460C4608
:1009600015461F46EB48B0F80004C10BC903E9481F
:10097000A0F800143246E8A1E948FFF7F4FD1CB9DD
:1009800015B90120BDE8F0813846FFF7C5FE00210A
:10099000E048B0F80004C0F30E00DE4A11541146DE
:1009A000E0A008F03FF8B4B1ADB12146D94807F056
:1009B0002BFE08B1012000E0002040B92946D548AF
:1009C00007F022FE08B1012000E0002008B101205C
:1009D000D8E70020D6E744B12146CE4807F014FE00
:1009E00008B10120CEE70020CCE72946C94807F02E
:1009F0000BFE08B10120C5E70020C3E710B50221B6
:100A0000C34806F05EFA4FF47A70FFF785FE01E006
:100A1000FFF794FFC8230022C3A1C4A0FFF79CFFE7
:100A20000028F5D010BD10B5044624B1012C0AD021
:100A3000022C18D10FE040F6C413BDA2BAA1BFA08A
:100A4000FFF78AFF10BD40F6C413B9A2B6A1BEA03D
:100A5000FFF782FFF6E740F6C413B5A2B2A1BDA02E
:100A6000FFF77AFFEEE70020ECE730B59FB00446D1
:100A70000D462B462246BAA101A807F0E3FF41F636
:100A800058330022A8A101A8FFF766FF1FB030BDB0
:100A900070B5A0B004460D4616462B462246B5A1B9
:100AA00002A8009607F0CEFF4FF47A7300229EA1B1
:100AB00002A8FFF751FF20B070BD10B586B0044604
:100AC0000CB1012000E000200246B0A101A807F00F
:100AD000B9FF4FF4FA73002293A101A8FFF73CFF7E
:100AE00006B010BDF0B5B9B006460F4614461D4617
:100AF000642120A807F071FD16B1012E10D107E086
:100B00003B46A6A2A6A120A8009407F09BFF08E000
:100B10003B46A7A2A2A120A8009407F093FF00E003
:100B200000BF00BF052D06DA20AB2A46A1A102A80E
:100B300007F088FF04E020AAA3A102A807F082FF23
:100B40004FF4FA73A4A278A102A8FFF705FF39B009
:100B5000F0BD70B5BCB004460D461646FCB12B4640
:100B60000122A1A11EA807F06DFF3246A3A168468D
:100B700007F068FF4FF4FA7300226BA11EA8FFF77D
:100B8000EBFE50B14FF4FA73002267A16846FFF7FD
:100B9000E3FE10B101203CB070BD0020FBE72B4606
:100BA000002291A11EA807F04DFF4FF4FA73002216
:100BB0005DA11EA8FFF7D0FEEDE710B54FF4FA7364
:100BC000002259A191A0FFF7C7FE48B14FF4FA7374
:100BD00092A293A193A0FFF7BFFE08B1012010BD20
:100BE0000020FCE72DE9F04186B007460C4615468B
:100BF0001E464FF000082FB122464AA14848FFF791
:100C0000B2FC1CE0052E06DAAB1C324688A101A816
:100C100007F018FF04E0AA1C8AA101A807F012FF40
:100C20004FF47A7300228BA101A8FFF795FE4FF4D1
:100C30007A73002288A12046FFF78EFE8046404648
:100C400006B0BDE8F08170B5044600253148B0F823
:100C50000004C10BC9032F48A0F80014B0F8000429
:100C600020F400412B48A0F8001400BF2948B0F838
:100C70000004C00BFAD000212648B0F80004C0F3ED
:100C80000E00244A115434B164A1104607F0BCFC94
:100C900038B1204D05E072A11E4807F0B5FC00B147
:100CA0001C4D284670BD1CB50120FFF739FEFFF72B
:100CB000A5FE0020FFF7B7FE41F2883300221AA1FB
:100CC00069A0FFF749FE00BF6AA000906AA00190EA
:100CD000DDE90001FFF7C9FE0028F5D00120FFF78C
:100CE000ECFE00BF67A000906AA0019000231846A8
:100CF000DDE90012FFF7F6FE0028F3D00123002003
:100D0000DDE90012FFF7EEFE0028EBD01CBD00006D
:100D1000000801405C00002025730D0A000000005F
:100D200000440040257300004F4B00004154000078
:100D30006E6F206368616E676500000041542B434D
:100D4000574D4F44453D310041542B43574D4F447F
:100D5000453D320041542B43574D4F44453D3300F0
:100D600041542B43574A41503D222573222C2225C2
:100D70007322000041542B43575341503D222573A9
:100D8000222C222573222C312C25730041542B4315
:100D900049504D55583D2564000000005443500013
:100DA000222573222C222573222C2573000000009B
:100DB0005544500041542B43495053544152543DE3
:100DC00025642C257300000041542B434950535493
:100DD0004152543D25730000414C52454159204336
:100DE0004F4E4E454354000041542B434950534508
:100DF000525645523D25642C2573000041542B4327
:100E0000495053544F3D25730000000041542B437B
:100E100049504D4F44453D31000000003E00000068
:100E20000D0A000041542B43495053454E440000E5
:100E300041542B43495053454E443D25642C256471
:100E40000000000041542B43495053454E443D257A
:100E5000640000003E20000053454E44204F4B00EC
:100E60002B4950440000000041542B43574C415043
:100E70000000000036303100313233343536313243
:100E8000000000003139322E3136382E3139312E02
:100E90003100000038303830200000001FB501213B
:100EA000412006F019FA0420ADF804008DF807007F
:100EB00001A93B4805F05AFF0820ADF804000420C2
:100EC0008DF8070001A9364805F050FF03210420E2
:100ED00006F060F80820029000208DF80C00082031
:100EE0008DF80D0001208DF80E0002A805F05EFEC1
:100EF0004FF4A06005F0DEFD09208DF8000003200E
:100F00008DF8010000208DF8020001208DF803000B
:100F1000684605F0D4FD1FBD1FB50121412006F034
:100F2000DBF91020ADF8040004208DF8070001A9BA
:100F30001B4805F01BFF2020ADF8040004208DF8AD
:100F4000070001A9164805F011FF0421084606F024
:100F500021F81020029000208DF80C0008208DF858
:100F60000D0001208DF80E0002A805F01FFE4FF4C1
:100F7000A06005F09FFD0A208DF8000003208DF889
:100F8000010001208DF802008DF80300684605F08D
:100F900096FD1FBD10B5FFF781FFFFF7BDFF10BD28
:100FA0000018014010B56148406820F470405F4966
:100FB00048600846406840F44050486000205C4962
:100FC00008604FF01400FFF7A7FB01205949C1F852
:100FD000AC011E20FFF7B2FB10BD10B50024534832
:100FE000406820F47040514948600846406840F429
:100FF0000040486004E0601CC4B20120FFF79EFB83
:101000004D48006808B1642CF5DB642C01DB01203D
:1010100010BD002404E0601CC4B20120FFF78EFB69
:101020004548006808B9642CF5DB642C01DB01201D
:10103000EEE70020ECE710B5002404E0601CC4B229
:101040000120FFF77BFB3C48006808B1642CF5DB0E
:10105000002404E0601CC4B20120FFF76FFB364897
:10106000006808B9642CF5DB2820FFF767FB3248DD
:10107000006808B1012010BD0020FCE770B5002415
:10108000002506E06006040EFFF7D5FF0443681C48
:10109000C5B2082DF6DB204670BD7CB505460E4670
:1010A000FFF780FFFFF799FFF8B9002405E0FFF78D
:1010B000E5FF0DF80400601CC4B2052CF7DB9DF8B9
:1010C00000009DF8011008449DF8021008449DF8A6
:1010D000031008449DF80410884208D19DF80000D0
:1010E00030709DF80200287001E001207CBD0020D6
:1010F000FCE710B51148806940F480700F498861A1
:101100000A48406820F47040084948600846406832
:1011100040F4405048600846C06840F40060C86031
:10112000FFF740FFFFF759FF10BD0000002001400E
:10113000AC012442000024422C0124420010024051
:101140004148006810F4807F1AD040480078022897
:1011500016DA3E48007850B900203D4908604FF04B
:1011600001003C49C1F898013B49086002E00020B9
:10117000394908603548007800F1010033490870AA
:101180004FF4807030490860704710B50222082182
:101190000020FFF736FB0223172200210846FFF745
:1011A000F7FA10BD10B5082005F066FD38B12B48E0
:1011B0000088401C29490880082005F06EFD10BDFC
:1011C00010B5102005F058FD38B125480088401CA6
:1011D00023490880102005F060FD10BD70B505465C
:1011E0000C462048C06940F004001E49C8611E48F2
:1011F0000580001F04801C482038008840F0010052
:1012000019492039088018482C38008840F001001E
:1012100015492C39088002231E2203210120FFF7E3
:10122000B7FA70BD10B510481C38008810F0010FD7
:1012300001D000F01FFB0C481C38008820F0010092
:1012400009491C39088010BD140401400800002021
:1012500098812242008022428C8121420400002099
:1012600006000020001002402C08004008B50121B3
:10127000080206F031F84020ADF8000028208DF873
:10128000030069460D4805F071FD08BD08B5012150
:10129000080206F021F84FF48070ADF80000282015
:1012A0008DF803006946054805F060FD08BD10B5DE
:1012B000FFF7DCFFFFF7EAFF10BD00000020014050
:1012C00000B589B0012140F6080006F005F840207D
:1012D000ADF8200010208DF8230003208DF82200A7
:1012E00008A97B4805F042FD2020ADF8200008A9A0
:1012F000774805F03BFD4FF40060ADF82000182062
:101300008DF8230003208DF8220008A9714805F00C
:101310002DFD0220ADF8140040F2E730ADF81800C2
:101320000020ADF81A00ADF816008DF81C0005A9D4
:10133000694806F00DF901A806F03FFC7020ADF8F1
:1013400004000120ADF806000020ADF80C0001A952
:10135000614806F014FA0821604806F0A4FD012156
:101360005D4806F051FD01215B4806F04DFC01216E
:10137000594806F055FC09B000BD00B589B00121FF
:1013800042F2100005F0A8FF4FF48060ADF8200095
:1013900010208DF8230003208DF8220008A9504862
:1013A00005F0E4FC4FF40060ADF8200008A94C48BB
:1013B00005F0DCFC4FF40070ADF8200018208DF82B
:1013C000230003208DF8220008A9454805F0CEFC33
:1013D0000220ADF8140040F2E730ADF8180000200C
:1013E000ADF81A00ADF816008DF81C0005A93B48B1
:1013F00006F0AEF801A806F0E0FB7020ADF804009E
:101400000120ADF806000020ADF80C0001A933481A
:1014100006F0B5F90821314806F045FD01212F48B5
:1014200006F0F2FC01212D4806F0EEFB01212B48CD
:1014300006F0F6FB09B000BD10B54021244805F0C8
:1014400042FD2021224805F03CFD10BD10B5402191
:101450001F4805F036FD20211D4805F034FD10BD64
:1014600010B54FF400611E4805F02BFD4FF480616C
:101470001B4805F028FD10BD10B54FF40061184859
:1014800005F021FD4FF48061154805F01AFD10BDEF
:1014900010B540210E4805F014FD20210C4805F040
:1014A00010FD10BD10B54FF400610D4805F009FDA9
:1014B0004FF480610A4805F004FD10BD10B5FFF738
:1014C0005CFFFFF7FDFEFFF7E3FFFFF7EBFF10BD4B
:1014D000000C014000080140002C01400034014094
:1014E000001001402DE9F04705460E46904699460A
:1014F00005EB48001FFA80FA06EB490087B2B7F502
:10150000447F02DDA7F5447087B2032000F0AAFBF8
:10151000044604F0F0040AF00301284661F39F003A
:1015200004432146032000F07EFBC5F38701192008
:1015300000F079FBCAF387011A2000F074FB322017
:1015400000F090FB044604F0C00407F007013046A9
:1015500061F3DF000443C6F3C701172000F063FB0B
:10156000C7F3C701182000F05EFBBDE8F08770B537
:101570000025FE48806940F00400FC498861084667
:10158000806940F0080088610846806940F01000DA
:1015900088610846806940F02000886108468069BB
:1015A00040F480708861F248006820F00F00F04934
:1015B00008600846006840F008000860EC48083001
:1015C000006840F48070EA4908310860E948006822
:1015D00020F47F20E74908600846006840F44C305A
:1015E0000860E4480C30006840F01800E1490C3114
:1015F00008604FF08830E04908600846C06840F055
:10160000FF00C860DD48006820F07060DB490860BA
:101610000846006840F040700860D8480C30006808
:1016200040F04000D5490C310860D548406820F0B2
:101630007F40D34948600846406840F04C504860BD
:101640004FF4E030C8600120FFF723F900F0DEF925
:101650008021122000F0E7FA08B1012070BD32208D
:10166000FFF75AF80B2000F0FDFA0446732C01D066
:101670000220F3E70A2000F0F5FA0446762C01D0A8
:101680000220EBE700250DE0BE4A02EB450251784F
:10169000BC4A12F8150000F0C6FA0220FFF73CF829
:1016A000681C85B2732DEFD3FFF76FFD4FF4A07365
:1016B000F022AE210A20FFF715FF0020B249086092
:1016C00041F61F4140F2F310FFF788FD0020C5E707
:1016D0002DE9F0410446E72500260027012C06D01D
:1016E000022C08D0032C0AD0042C10D10BE0E525E5
:1016F0005A265C270BE0E5255826602707E0E525FC
:1017000084264C2703E0E5259626402700BF00BF2E
:101710002946132000F087FA3146012000F083FAB1
:101720003946022000F07FFABDE8F0812DE9F04152
:101730000446802522265E2734B1012C08D0032CD4
:101740000AD0042C10D10BE0402511262F270BE0E6
:1017500066251B264B2707E099252826712703E0DD
:10176000C02533268D2700BF00BF29464F2000F03B
:101770005AFA2946502000F056FA0021512000F074
:1017800052FA3146522000F04EFA3946532000F00A
:101790004AFA2946542000F046FA9E21582000F0CB
:1017A00042FABDE8F08170B50446002534B1012C41
:1017B00006D0032C06D0042C08D105E0B02505E0A6
:1017C000982503E0182501E0302500BF00BF294619
:1017D000552000F028FA70BD70B50446402534B19C
:1017E000012C06D0032C06D0042C08D105E03025AE
:1017F00005E0382503E0502501E0602500BF00BF6B
:101800002946562000F00FFA70BD2DE9F04104463C
:101810000425C0268027072C1DD2DFE804F01C0415
:10182000080C1014180024258026802713E01425A6
:10183000802680270FE01425C02680270BE0142582
:101840004026402707E014258026C02703E0142502
:10185000A026402700BF00BF29463A2000F0E3F948
:101860003146682000F0DFF93946672000F0DBF9E7
:10187000BDE8F08170B54548007802284BD10420BE
:1018800000F0E4FB0021084600F05AFA00F03BFAB1
:1018900000203F4908603F49C1F890014FF0010026
:1018A0003D4908604FF0000008604FF001003849E2
:1018B00008603849C1F890014FF000051FE0002092
:1018C000354908602C488068C4B24FF001003149A6
:1018D000C1F890014FF6FF7000EA04244FF00000B9
:1018E000C1F8900124488068C0B240EA04044FF077
:1018F0000100C1F890012948048005F10105B5F502
:10190000963FDCD34FF480702549086000201F49C2
:10191000087000F09BFB70BD2DE9F04186B00027F8
:101920004FF48061002004F08AFF05461DB90120B4
:1019300006B0BDE8F0811BA007F074F8002453E066
:1019400000264DE02146304600F07DFA80464246B2
:1019500018A101A807F076F801A9284606F048FE6C
:10196000781C87B2F02F39D1002725E00010024003
:1019700004080140000C0140001001400014014027
:1019800000200140B08D0008BC0124420800002066
:10199000B801244200802142908121420008006C5D
:1019A0001404014070636974757265206461746128
:1019B0003A00000025780000284606F037FE8046F1
:1019C0000023424629461846FFF70CF9002301225E
:1019D0000BA11846FFF706F900202870F01C86B20C
:1019E000F02EAFDBE01C84B2B4F5B47FA8DB05A019
:1019F00007F018F82946002004F011FF002097E7AF
:101A00002000000073656E64206F6B00A948806938
:101A100040F48070A74988610846806940F0200042
:101A20008861A548406820F47000A34948600846D2
:101A3000406840F4000048600846C06840F4005028
:101A4000C8609E48006820F470409C4908600846C1
:101A5000006840F44050086098480C30006840F03E
:101A6000080096490C3108609348406820F47000E3
:101A7000914948600846406840F44010486070470B
:101A800010B501208E4908608E49C1F88C014FF0D5
:101A90003200FEF753FE0020894908604FF0320003
:101AA000FEF74CFE00208749C1F88C0110BD10B52F
:101AB0000020834908604FF03200FEF73FFE01200E
:101AC0008049C1F88C013220FEF738FE01207C49A4
:101AD00008604FF03200FEF731FE10BD10B5322025
:101AE000FEF72CFE0120764908607649C1F88C018A
:101AF0004FF03200FEF722FE0020734908604FF0DD
:101B00003200FEF71BFE00207049C1F8B4013220FC
:101B1000FEF714FE10BD70B5044600261EE014F05A
:101B2000800F03D001206649086002E0002064496C
:101B300008604FEA44604FEA10644FF03200FEF74D
:101B4000FDFD0120604908604FF03200FEF7F6FD10
:101B500000205C49C1F88C01701CC6B2082EDEDB87
:101B60005548406820F47000534948600846406872
:101B700040F4000048603220FEF7E0FD01205249A9
:101B800008604FF03200FEF7D9FD5048D0F834011C
:101B900008B1012500E0002500204B4908604648B7
:101BA000406820F47000444948600846406840F4AA
:101BB00040104860284670BD70B500243E4840681B
:101BC00020F470003C4948600846406840F400003A
:101BD0004860082518E03220FEF7B0FD01203A49A0
:101BE00008604FEA44604FEA10643848D0F8340186
:101BF00008B1601CC4B23220FEF7A0FD00203249BB
:101C00000860A5F10100C5B2002DE4DC2A48406857
:101C100020F47000284948600846406840F44010AD
:101C20004860204670BD70B505460C460026FFF79B
:101C300027FF4220FFF76FFF00B101266420FEF767
:101C40007DFD2846FFF767FF00B101266420FEF7FF
:101C500075FD2046FFF75FFF00B10126FFF727FF64
:101C6000304670BD70B504460025FFF709FF4220DD
:101C7000FFF751FF6420FEF761FD2046FFF74BFFA1
:101C80006420FEF75BFDFFF712FF6420FEF756FDB0
:101C9000FFF7F6FE4320FFF73EFF6420FEF74EFD00
:101CA000FFF78AFF0546FFF719FFFFF700FF2846F9
:101CB00070BD0000001002400020014000140140EF
:101CC000B4012442008022428C812242000024423E
:101CD000FE4908807047FD49891C08807047FB4811
:101CE000801C00887047F94A1080921C1180704750
:101CF00010B504462046FFF7EBFF0520FEF71EFD5A
:101D0000FFF7EDFF10BDF2480089F04908807047E9
:101D1000EE49891C0880704730B5014601F01F0468
:101D2000C1F34513CA0AE50205EB43151544A8B2F1
:101D300030BD00BF0100A0F10102D0B2FAD170475E
:101D400010B503460C46E2488088A0F5134141399E
:101D500005D0DF488088A0F5A641103914D1DC49B0
:101D60004889FFF7B5FF1812FFF7B5FFD8B2FFF7A4
:101D7000B2FFD7498889FFF7ABFF2012FFF7ABFF0F
:101D8000E0B2FFF7A8FF5DE0D1488088A0F5D04120
:101D900004391DD1CE488079012804D1CC4800886F
:101DA000401EC01A83B2CA494889FFF791FF181232
:101DB000FFF791FFD8B2FFF78EFFC5498889FFF77B
:101DC00087FF2012FFF787FFE0B2FFF784FF39E0BB
:101DD000BF488088A0F5AA41103920D1BC49488964
:101DE000FFF776FF1812FFF776FFB9494989491CBA
:101DF00088B2FFF76DFFD8B2FFF76DFFB44988894D
:101E0000FFF766FF2012FFF766FFB1498989491C79
:101E100088B2FFF75DFFE0B2FFF75DFF12E0AC486C
:101E20008079012804D1AA480088401EC01A83B2D4
:101E3000A74948891946FFF756FFA54988892146D1
:101E4000FFF751FF10BD2DE9F04105460E46002475
:101E50000027A0469E480088A84203DD9C48408891
:101E6000B04202DC0020BDE8F08131462846FFF791
:101E700067FF97488088A0F5134141390BD09448FB
:101E80008088A0F5D041043905D091488088A0F51C
:101E9000A641103903D12E20FFF71AFF0DE08C4820
:101EA0008088A0F5AA41103904D14FF43850FFF7CB
:101EB0000FFF02E02220FFF70BFF85488088A0F586
:101EC0001341203902D10220FFF733FF7F48801CE5
:101ED000008800B100240220FFF72BFF7B48801C04
:101EE00004887B488088A0F5134141390BD078489D
:101EF0008088A0F5A641103905D075488088A0F5E6
:101F0000AA4110390CD10220FFF713FF6F48801C43
:101F1000B0F80080E7B24FF6FF7000EA072708E04C
:101F20006B488088A0F5D041043902D16748801CF5
:101F3000048867488088A0F51341253917D0644884
:101F40008088A0F58A41353911D061488088A0F594
:101F50008A4131390BD05E488088A0F50941893922
:101F600005D05B488088A0F53541053901D1204670
:101F700079E757488088A0F5134141390BD0544880
:101F80008088A0F5A641103905D051488088A0F579
:101F9000AA41103907D1E012C002B91240EA41103B
:101FA00040EAE8205FE72046FFF7B6FE5BE700B5B2
:101FB00047488088A0F5134141390BD044488088B8
:101FC000A0F5D041043905D041488088A0F5A6414C
:101FD000103903D12920FFF77BFE0FE03C488088B1
:101FE000A0F5AA41103904D14FF42450FFF770FE38
:101FF00004E040F273110720FFF775FE00BD00B545
:1020000033488088A0F5134141390BD0304880888F
:10201000A0F5D041043905D02D488088A0F5A6410F
:10202000103903D12820FFF753FE0EE0284880889E
:10203000A0F5AA41103904D14FF42050FFF748FE13
:1020400003E000210720FFF74EFE00BDF0B5054676
:10205000002400271E48807901281ED11C48808852
:10206000A0F5D041043918D0082D15D2DFE805F0CD
:102070000406080A0C0E101206250DE007250BE0D9
:10208000042509E0052507E0012505E0002503E01A
:10209000032501E0022500BF00BF0D488088A0F5A0
:1020A0001341413911D00A488088A0F5D041043944
:1020B0000BD007488088A0F5A641103905D0044808
:1020C0008088A0F5AA4110397ED103E0FE07006C9C
:1020D0005E040020082D1CD2DFE805F00406090C80
:1020E0000F12151800BF14E044F0800411E044F012
:1020F00040040EE044F0C0040BE044F0200408E08B
:1021000044F0600405E044F0A00402E044F0E00480
:1021100000BF00BFFA488088A0F5AA41103902D15B
:102120004FF4585700E03627F5488088A0F5A641BF
:10213000103907D0F2488088A0F5AA41103901D0A3
:1021400044F00804EE488088A0F5D041043901D15C
:1021500044F0020421463846FFF7C5FD14F0200F75
:102160000DD0E7480088E6494988884214DAE448F7
:1021700006884088E2490880084646800CE0E0482E
:102180000088DF494988884206DDDD4806884088A6
:10219000DB49088008464680D9488088A0F5AA41D6
:1021A000103954D1D6494889FFF792FD0020FFF736
:1021B00092FDD3494989491C88B2FFF789FD002067
:1021C000FFF789FDCE4900E070E04989891C88B29B
:1021D000FFF77EFDCA490988491EC1F30F20FFF7AA
:1021E0007AFDC7494989C91C88B2FFF771FDC44906
:1021F0000978491EC8B2FFF76EFDC1498889FFF70B
:1022000067FD0020FFF767FDBD498989491C88B239
:10221000FFF75EFD0020FFF75EFDB9498989891C43
:1022200088B2FFF755FDB6494988491EC1F30F2012
:10223000FFF751FDB2498989C91C88B2FFF748FDF3
:10224000AF498978491EC8B2FFF745FD60E0AC4947
:102250004889FFF73DFD0020FFF73DFD0020FFF717
:102260003AFDA7490988491EC1F30F20FFF733FD46
:10227000A3490978491EC8B2FFF72DFDA0498889F6
:10228000FFF726FD0020FFF726FD0020FFF723FDC6
:102290009B494988491EC1F30F20FFF71CFD98494F
:1022A0008978491EC8B2FFF716FD31E0082D1CD20F
:1022B000DFE805F004070A0D0F12151844F030048A
:1022C00013E044F0100410E044F020040DE000BFDF
:1022D0000BE044F0380408E044F0280405E044F042
:1022E000180402E044F0080400BF00BF844880885E
:1022F000A0F50941893904D1112746F24000044371
:1023000002E0032744F4805421463846FFF7EBFCF3
:10231000F0BD30B504460D4629462046FFF710FDB6
:10232000FFF7F1FC774800887749088030BD30B569
:1023300003460C46154672488088A0F51341413982
:1023400005D06F488088A0F5A641103914D16C499A
:102350004889FFF7BDFC1812FFF7BDFCD8B2FFF7A4
:10236000BAFC67498889FFF7B3FC2012FFF7B3FC7A
:10237000E0B2FFF7B0FC5DE061488088A0F5AA41BB
:10238000103920D15E494889FFF7A2FC1812FFF7E7
:10239000A2FC5B494989491C88B2FFF799FCD8B275
:1023A000FFF799FC56498889FFF792FC2012FFF746
:1023B00092FC53498989491C88B2FFF789FCE0B235
:1023C000FFF789FC36E04E488088A0F5D0410439FB
:1023D0001DD14B488079012804D149480088401E0E
:1023E000C01A83B246494889FFF772FC1812FFF7FA
:1023F00072FCD8B2FFF76FFC41498889FFF768FC8F
:102400002012FFF768FCE0B2FFF765FC12E03C48E1
:102410008079012804D13A480088401EC01A83B24E
:10242000374948891946FFF75EFC354988892146B6
:10243000FFF759FC324800893349891E0880881CFF
:10244000058030BD10B50446002C67D12C49887139
:10245000F02008804FF4A070488008468088A0F5DE
:10246000134141390BD026488088A0F5D04104396A
:1024700005D023488088A0F5A64110391AD12C2018
:102480001F4908812A2048812B208881084680889E
:10249000A0F5D041043905D019488088A0F5A6419F
:1024A000103906D14FF4A070154908804FF4F07030
:1024B00048809CE012488088A0F50941893907D1FD
:1024C00022200F4908814E2048814F2088818EE0CC
:1024D0000B488088A0F5AA41103917D14FF430502D
:1024E000074908814FF4285048814FF42C508881C7
:1024F0004FF4F07008804FF44870488077E00DE0AA
:102500005E0400200A0000200008006C2220FE4922
:102510000881202048812120888168E00120FA4933
:1025200088714FF4A0700880F020488008468088A9
:10253000A0F51341413905D0F3488088A0F5A641A4
:10254000103907D12C20F04908812A2048812B20FE
:10255000888139E0EC488088A0F5D041043907D162
:102560002C20E94908812B2048812A2088812BE0F2
:10257000E5488088A0F50941893907D12220E24940
:1025800008814F2048814E2088811DE0DE488088E8
:10259000A0F5AA41103910D14FF43050DA49088122
:1025A0004FF4285048814FF42C5088814FF44870E4
:1025B00008804FF4F070488006E02220D24908815C
:1025C0002120488120208881CF488088A0F5D041F3
:1025D000043905D0CC488088A0F5A641103906D131
:1025E0004FF4F070C84908804FF4A0704880002074
:1025F000FFF72CFD10BD2DE9FF4F04460D46164692
:102600001F46A019401E86B2E819401E87B2BE4878
:102610008088A0F5134141390BD0BB488088A0F5D4
:10262000A641103905D0B8488088A0F5D0410439BA
:1026300020D1B5494889FFF74BFB2012FFF74BFB30
:10264000E0B2FFF748FB3012FFF745FBF0B2FFF7AF
:1026500042FBAD498889FFF73BFB2812FFF73BFBA4
:10266000E8B2FFF738FB3812FFF735FBF8B2FFF797
:1026700032FB90E0A4488088A0F5AA41103944D1EB
:10268000A1494889FFF724FB2012FFF724FB9E494C
:102690004989491C88B2FFF71BFBE0B2FFF71BFB1F
:1026A00099494989891C88B2FFF712FB3012FFF75C
:1026B00012FB95494989C91C88B2FFF709FBF0B2A2
:1026C000FFF709FB90498889FFF702FB2812FFF703
:1026D00002FB8D498989491C88B2FFF7F9FAE8B2F3
:1026E000FFF7F9FA88498989891C88B2FFF7F0FA5F
:1026F0003812FFF7F0FA84498989C91C88B2FFF7BC
:10270000E7FAF8B2FFF7E7FA45E07F488079012859
:102710000ED1A846B9467C480088801B401E80B276
:10272000019079480088001B401E80B2009003E0B1
:10273000A046B1460195009773488088A0F50941ED
:1027400089390CD14FF0440AD34648EA09201FFAD0
:1027500080F8C146452003904620029007E04FF0E4
:10276000500A4FF0510B52200390532002904146E3
:102770005046FFF7B8FA49465846FFF7B4FA0199B0
:102780000398FFF7B0FA00990298FFF7ACFA2946D0
:102790002046FFF7D5FABDE8FF8F70B50446002646
:1027A000594805884088454357488088A0F5D0415E
:1027B000043916D154488079012812D10020524999
:1027C00088712A2048812B20888100210846FFF744
:1027D000B7FA01204C4988712B2048812A20888132
:1027E00003E000210846FFF7ABFAFFF78CFA00265A
:1027F00002E046480480761CAE42FAD370BD10B5A4
:102800004348406940F48070414948610846806906
:1028100040F0080088610846806940F02000886127
:102820000846806940F0400088610846806940F4AD
:10283000807088613748006820F00F0035490860D3
:102840000846006840F003000860334800683349D8
:1028500008403149086008460068314908432E495C
:102860000860081F006800F0FF20091F0860084684
:10287000006840F0BB1008602A4800680020294921
:1028800008600846006840F0BB300860081F006818
:1028900020F07040091F08600846006840F0304092
:1028A00008602148406820F470201F4948600846AD
:1028B000406840F4302048600846006820F00F006F
:1028C00008600846006840F00B00086000204FF0E8
:1028D00020418861C861154908604FF02040806937
:1028E00040F480504FF0204188610846806940F4F0
:1028F000804088610846806940F010008861084681
:10290000C069C861084613E05E0400200008006C3E
:1029100000100240000C01400414014000F0FF00D0
:10292000BB0B00BB04180140002001401C0100A0AB
:10293000C06940F00100C8610846C06940F4706099
:10294000C861FE480068C1F81C01FC480068C1F875
:102950001C010846D0F81C0140F44070C1F81C016D
:102960000846806940F0010088614FF03200FDF7B1
:10297000D3FE01210020FFF7B6F93220FDF7CCFE8F
:102980000020FFF7B5F9EE49888008468088FF28C7
:102990000ADB08468088A0F57F41FF3904D0E8486B
:1029A0008088B0F5134F7CD1D320FFF791F9FFF762
:1029B00096F9FFF794F9FFF792F9E1498880084604
:1029C00080884FF6FF7101EA0020DD498880FFF71B
:1029D00086F9DB4989880843D94988800846808878
:1029E000A0F5134141396CD0BF20FFF771F9FFF713
:1029F00076F9FFF774F9FFF772F9FFF770F9D0492C
:102A00008880084680884FF6FF7101EA0020CC4993
:102A10008880FFF764F9CA4989880843C8498880D3
:102A200008468088A0F5D04104394AD0D420FFF769
:102A30004FF9FFF754F9FFF752F9FFF750F9C04982
:102A40008880084680884FF6FF7101EA0020BC4963
:102A50008880FFF744F9BA4989880843B8498880D3
:102A600008468088A0F5A64110392AD04FF45A4074
:102A7000FFF72EF9FFF733F94FF45B40FFF728F922
:102A8000FFF72DF9AE498880084680884FF6FF7120
:102A900001EA0020AA4988804FF45C40FFF718F94A
:102AA00000E00EE0FFF71BF9A54989880843A44917
:102AB000888008468088B0F5004F02D145F210505A
:102AC00088809F4881889FA005F0ACFF9C48808843
:102AD000A0F5134141397CD1CF20FFF7F9F8002050
:102AE000FFF7F9F8C120FFF7F6F83020FFF7F3F809
:102AF000ED20FFF7EDF86420FFF7EDF80320FFF776
:102B0000EAF81220FFF7E7F88120FFF7E4F8E82061
:102B1000FFF7DEF88520FFF7DEF81020FFF7DBF87F
:102B20007A20FFF7D8F8CB20FFF7D2F83920FFF74B
:102B3000D2F82C20FFF7CFF80020FFF7CCF8342094
:102B4000FFF7C9F80220FFF7C6F8F720FFF7C0F833
:102B50002020FFF7C0F8EA20FFF7BAF80020FFF7BF
:102B6000BAF80020FFF7B7F8C020FFF7B1F81B2034
:102B7000FFF7B1F8C120FFF7ABF80120FFF7ABF882
:102B8000C520FFF7A5F83020FFF7A5F83020FFF7A4
:102B9000A2F8C720FFF79CF8B720FFF79CF8362073
:102BA000FFF796F84820FFF796F83A20FFF790F8DD
:102BB0005520FFF790F8B120FFF78AF80020FFF7C3
:102BC0008AF81A20FFF787F8B620FFF781F80A2065
:102BD00000E099E0FFF77FF8A220FFF77CF8F220F1
:102BE000FFF776F80020FFF776F82620FFF770F859
:102BF0000120FFF770F8E020FFF76AF80F20FFF7D9
:102C00006AF82A20FFF767F82820FFF764F8082001
:102C1000FFF761F80E20FFF75EF80820FFF75BF87A
:102C20005420FFF758F8A920FFF755F84320FFF785
:102C300052F80A20FFF74FF80F20FFF74CF800205A
:102C4000FFF749F80020FFF746F80020FFF743F8A8
:102C50000020FFF740F8E120FFF73AF80020FFF7E7
:102C60003AF81520FFF737F81720FFF734F8072058
:102C7000FFF731F81120FFF72EF80620FFF72BF8A9
:102C80002B20FFF728F85620FFF725F83C20FFF708
:102C900022F80520FFF71FF81020FFF71CF80F207F
:102CA000FFF719F83F20FFF716F83F20FFF713F85A
:102CB0000F20FFF710F82B20FFF70AF80020FFF78E
:102CC0000AF80020FFF707F80120FFF704F83F207B
:102CD000FFF701F82A20FEF7FBFF0020FEF7FBFFBD
:102CE0000020FEF7F8FF0020FEF7F5FFEF20FEF7CB
:102CF000F2FF1120FEF7ECFF7820FDF70DFD2920F3
:102D0000FEF7E6FF03F028B90D488088A0F5D04112
:102D100004397DD11120FEF7DBFF1420FDF7FCFC08
:102D2000D020FEF7D5FF0720FEF7D5FF4220FEF7A3
:102D3000D2FF1D20FEF7CFFFD1200BE01C0100A029
:102D40005E040020204C43442049443A25780D0A73
:102D500000000000FEF7BCFF0020FEF7BCFF1A20B9
:102D6000FEF7B9FF0920FEF7B6FFD220FEF7B0FF4D
:102D70000120FEF7B0FF2220FEF7ADFFC020FEF7D6
:102D8000A7FF1020FEF7A7FF3B20FEF7A4FF0020BF
:102D9000FEF7A1FF0220FEF79EFF1120FEF79BFF2A
:102DA000C520FEF795FF0320FEF795FFC820FEF72C
:102DB0008FFF0020FEF78FFF2520FEF78CFF2120DC
:102DC000FEF789FF0520FEF786FF0020FEF783FF50
:102DD0000A20FEF780FF6520FEF77DFF2520FEF725
:102DE0007AFF7720FEF777FF5020FEF774FF0F2061
:102DF000FEF771FF0020FEF76EFFF820FEF768FF78
:102E00000120FEF768FFFE20FEF762FF002000E0D1
:102E100038E0FEF760FF0220FEF75DFF2020FEF79E
:102E200057FF3620FEF754FF0820FEF754FF3A20E4
:102E3000FEF74EFF5520FEF74EFF2B20FEF748FF12
:102E40000020FEF748FF0020FEF745FF0120FEF7B7
:102E500042FF3F20FEF73FFF2A20FEF739FF002008
:102E6000FEF739FF0020FEF736FF0120FEF733FFA3
:102E7000DF20FEF730FF7820FDF74EFC2920FEF71B
:102E800027FF3FE7FE488088A0F5A641103940F0B3
:102E90007C87ED20FEF71CFF0120FEF71CFFFE20C3
:102EA000FEF719FFEE20FEF713FFDE20FEF713FFFB
:102EB0002120FEF710FFF120FEF70AFF0120FEF7A8
:102EC0000AFFDF20FEF704FF1020FEF704FFC420F6
:102ED000FEF7FEFE8F20FEF7FEFEC620FEF7F8FE90
:102EE0000020FEF7F8FEE220FEF7F5FEE220FEF7F6
:102EF000F2FEE220FEF7EFFEBF20FEF7E9FEAA2079
:102F0000FEF7E9FEB020FEF7E3FE0D20FEF7E3FE3C
:102F10000020FEF7E0FE0D20FEF7DDFE0020FEF7AC
:102F2000DAFE1120FEF7D7FE0020FEF7D4FE1920AE
:102F3000FEF7D1FE0020FEF7CEFE2120FEF7CBFEED
:102F40000020FEF7C8FE2D20FEF7C5FE0020FEF78C
:102F5000C2FE3D20FEF7BFFE0020FEF7BCFE5D2056
:102F6000FEF7B9FE0020FEF7B6FE5D20FEF7B3FEC9
:102F70000020FEF7B0FEB120FEF7AAFE8020FEF78B
:102F8000AAFE0020FEF7A7FE8B20FEF7A4FE00207D
:102F9000FEF7A1FE9620FEF79EFE0020FEF79BFEA8
:102FA000B220FEF795FE0020FEF795FE0020FEF70A
:102FB00092FE0220FEF78FFE0020FEF78CFE03201B
:102FC000FEF789FE0020FEF786FEB320FEF780FEA6
:102FD0000020FEF780FE0020FEF77DFE0020FEF7B9
:102FE0007AFE0020FEF777FE0020FEF774FE002038
:102FF000FEF771FE0020FEF76EFE0020FEF76BFE6E
:103000000020FEF768FE0020FEF765FE0020FEF7B8
:1030100062FE0020FEF75FFE0020FEF75CFE00204F
:10302000FEF759FE0020FEF756FE0020FEF753FE85
:103030000020FEF750FE0020FEF74DFE0020FEF7B8
:103040004AFE0020FEF747FE0020FEF744FE002067
:10305000FEF741FE0020FEF73EFE0020FEF73BFE9D
:10306000B420FEF735FE8B20FEF735FE0020FEF77C
:1030700032FE9620FEF72FFE0020FEF72CFEA12048
:10308000FEF729FE0020FEF726FEB520FEF720FE03
:103090000220FEF720FE0020FEF71DFE0320FEF7B3
:1030A0001AFE0020FEF717FE0420FEF714FE002093
:1030B000FEF711FEB620FEF70BFE0020FEF70BFE1A
:1030C0000020FEF708FEB720FEF702FE0020FEF704
:1030D00002FE0020FEF7FFFD3F20FEF7FCFD002072
:1030E000FEF7F9FD5E20FEF7F6FD0020FEF7F3FD8A
:1030F0006420FEF7F0FD0020FEF7EDFD8C20FEF7CA
:10310000EAFD0020FEF7E7FDAC20FEF7E4FD00201D
:10311000FEF7E1FDDC20FEF7DEFD0020FEF7DBFD23
:103120007020FEF7D8FD0020FEF7D5FD9020FEF7B9
:10313000D2FD0020FEF7CFFDEB20FEF7CCFD0020F6
:10314000FEF7C9FDDC20FEF7C6FD0020FEF7C3FD3B
:10315000B820FEF7BDFD0020FEF7BDFD0020FEF704
:10316000BAFD0020FEF7B7FD0020FEF7B4FD0020F9
:10317000FEF7B1FD0020FEF7AEFD0020FEF7ABFD2F
:103180000020FEF7A8FDBA20FEF7A2FD2420FEF7DE
:10319000A2FD0020FEF79FFD0020FEF79CFD002011
:1031A000FEF799FDC120FEF793FD2020FEF793FD69
:1031B0000020FEF790FD5420FEF78DFD0020FEF765
:1031C0008AFDFF20FEF787FD0020FEF784FDC22068
:1031D000FEF77EFD0A20FEF77EFD0020FEF77BFD58
:1031E0000420FEF778FD0020FEF775FDC320FEF7F2
:1031F0006FFD3C20FEF76FFD0020FEF76CFD3A20CE
:10320000FEF769FD0020FEF766FD3920FEF763FD3D
:103210000020FEF760FD3720FEF75DFD0020FEF781
:103220005AFD3C20FEF757FD0020FEF754FD3620E6
:10323000FEF751FD0020FEF74EFD3220FEF74BFD5C
:103240000020FEF748FD2F20FEF745FD0020FEF789
:1032500042FD2C20FEF73FFD0020FEF73CFD29201B
:10326000FEF739FD0020FEF736FD2620FEF733FD80
:103270000020FEF730FD2420FEF72DFD002001E0A8
:103280005E040020FEF727FD2420FEF724FD002029
:10329000FEF721FD2320FEF71EFD0020FEF71BFD9B
:1032A0003C20FEF718FD0020FEF715FD3620FEF746
:1032B00012FD0020FEF70FFD3220FEF70CFD00206E
:1032C000FEF709FD2F20FEF706FD0020FEF703FDA7
:1032D0002C20FEF700FD0020FEF7FDFC2920FEF764
:1032E000FAFC0020FEF7F7FC2620FEF7F4FC002095
:1032F000FEF7F1FC2420FEF7EEFC0020FEF7EBFCCD
:103300002420FEF7E8FC0020FEF7E5FC2320FEF772
:10331000E2FC0020FEF7DFFCC420FEF7D9FC6220AF
:10332000FEF7D9FC0020FEF7D6FC0520FEF7D3FC03
:103330000020FEF7D0FC8420FEF7CDFC0020FEF735
:10334000CAFCF020FEF7C7FC0020FEF7C4FC1820E2
:10335000FEF7C1FC0020FEF7BEFCA420FEF7BBFC7C
:103360000020FEF7B8FC1820FEF7B5FC0020FEF7A1
:10337000B2FC5020FEF7AFFC0020FEF7ACFC0C20A6
:10338000FEF7A9FC0020FEF7A6FC1720FEF7A3FC21
:103390000020FEF7A0FC9520FEF79DFC0020FEF724
:1033A0009AFCF320FEF797FC0020FEF794FCE62041
:1033B000FEF791FC0020FEF78EFCC520FEF788FC8E
:1033C0003220FEF788FC0020FEF785FC4420FEF743
:1033D00082FC0020FEF77FFC6520FEF77CFC0020CD
:1033E000FEF779FC7620FEF776FC0020FEF773FCF2
:1033F0008820FEF770FC0020FEF76DFCC620FEF76B
:1034000067FC2020FEF767FC0020FEF764FC172015
:10341000FEF761FC0020FEF75EFC0120FEF75BFC7E
:103420000020FEF758FCC720FEF752FC0020FEF7F4
:1034300052FC0020FEF74FFC0020FEF74CFC002061
:10344000FEF749FCC820FEF743FC0020FEF743FCD2
:103450000020FEF740FC0020FEF73DFC0020FEF7B8
:103460003AFCC920FEF734FC0020FEF734FC0020B3
:10347000FEF731FC0020FEF72EFC0020FEF72BFCAF
:103480000020FEF728FC0020FEF725FC0020FEF7B8
:1034900022FC0020FEF71FFC0020FEF71CFC002091
:1034A000FEF719FC0020FEF716FC0020FEF713FCC7
:1034B0000020FEF710FC0020FEF70DFC0020FEF7B8
:1034C0000AFC0020FEF707FCE020FEF701FC1620B6
:1034D000FEF701FC0020FEF7FEFB1C20FEF7FBFBC5
:1034E0000020FEF7F8FB2120FEF7F5FB0020FEF799
:1034F000F2FB3620FEF7EFFB0020FEF7ECFB462048
:10350000FEF7E9FB0020FEF7E6FB5220FEF7E3FBA7
:103510000020FEF7E0FB6420FEF7DDFB0020FEF755
:10352000DAFB7A20FEF7D7FB0020FEF7D4FB8B20D6
:10353000FEF7D1FB0020FEF7CEFB9920FEF7CBFB78
:103540000020FEF7C8FBA820FEF7C5FB0020FEF711
:10355000C2FBB920FEF7BFFB0020FEF7BCFBC42076
:10356000FEF7B9FB0020FEF7B6FBCA20FEF7B3FB5F
:103570000020FEF7B0FBD220FEF7ADFB0020FEF7E7
:10358000AAFBD920FEF7A7FB0020FEF7A4FBE02052
:10359000FEF7A1FB0020FEF79EFBF320FEF79BFB4E
:1035A0000020FEF798FBE120FEF792FB1620FEF7C5
:1035B00092FB0020FEF78FFB1C20FEF78CFB002007
:1035C000FEF789FB2220FEF786FB0020FEF783FB37
:1035D0003620FEF780FB0020FEF77DFB4520FEF73E
:1035E0007AFB0020FEF777FB5220FEF774FB0020E9
:1035F000FEF771FB6420FEF76EFB0020FEF76BFB0D
:103600007A20FEF768FB0020FEF765FB8B20FEF7B3
:1036100062FB0020FEF75FFB9920FEF75CFB0020B9
:10362000FEF759FBA820FEF756FB0020FEF753FBE0
:10363000B920FEF750FB0020FEF74DFBC420FEF73B
:103640004AFB0020FEF747FBCA20FEF744FB0020A0
:10365000FEF741FBD220FEF73EFB0020FEF73BFBCE
:10366000D820FEF738FB0020FEF735FBE020FEF700
:1036700032FB0020FEF72FFBF320FEF72CFB00208F
:10368000FEF729FBE220FEF723FB0520FEF723FBD4
:103690000020FEF720FB0B20FEF71DFB0020FEF7AD
:1036A0001AFB1B20FEF717FB0020FEF714FB34204B
:1036B000FEF711FB0020FEF70EFB4420FEF70BFB8C
:1036C0000020FEF708FB4F20FEF705FB0020FEF769
:1036D00002FB6120FEF7FFFA0020FEF7FCFA7920DA
:1036E000FEF7F9FA0020FEF7F6FA8820FEF7F3FA63
:1036F0000020FEF7F0FA9720FEF7EDFA0020FEF723
:10370000EAFAA620FEF7E7FA0020FEF7E4FAB7206F
:10371000FEF7E1FA0020FEF7DEFAC220FEF7DBFA40
:103720000020FEF7D8FAC720FEF7D5FA0020FEF7F2
:10373000D2FAD120FEF7CFFA0020FEF7CCFAD6203D
:10374000FEF7C9FA0020FEF7C6FADD20FEF7C3FA3D
:103750000020FEF7C0FAF320FEF7BDFA0020FEF7C6
:10376000BAFAE320FEF7B4FA0520FEF7B4FA002017
:10377000FEF7B1FA0A20FEF7AEFA0020FEF7ABFA28
:103780001C20FEF7A8FA0020FEF7A5FA3320FEF76A
:10379000A2FA0020FEF79FFA4420FEF79CFA0020D0
:1037A000FEF799FA5020FEF796FA0020FEF793FAFA
:1037B0006220FEF790FA0020FEF78DFA7820FEF7DF
:1037C0008AFA0020FEF787FA8820FEF784FA0020A4
:1037D000FEF781FA9720FEF77EFA0020FEF77BFACB
:1037E000A620FEF778FA0020FEF775FAB720FEF75C
:1037F00072FA0020FEF76FFAC220FEF76CFA002082
:10380000FEF769FAC720FEF766FA0020FEF763FAB2
:10381000D120FEF760FA0020FEF75DFAD520FEF712
:103820005AFA0020FEF757FADD20FEF754FA00207E
:10383000FEF751FAF320FEF74EFA0020FEF74BFA9E
:10384000E420FEF745FA0120FEF745FA0020FEF7D6
:1038500042FA0120FEF73FFA0020FEF73CFA022070
:10386000FEF739FA0020FEF736FA2A20FEF733FA7F
:103870000020FEF730FA3C20FEF72DFA0020FEF77C
:103880002AFA4B20FEF727FA0020FEF724FA5D20E3
:10389000FEF721FA0020FEF71EFA7420FEF71BFA4D
:1038A0000020FEF718FA8420FEF715FA0020FEF734
:1038B00012FA9320FEF70FFA0020FEF70CFAA2206E
:1038C000FEF709FA0020FEF706FAB320FEF703FA26
:1038D0000020FEF700FABE20FEF7FDF90020FEF7FB
:1038E000FAF9C420FEF7F7F90020FEF7F4F9CD202D
:1038F000FEF7F1F90020FEF7EEF9D320FEF7EBF921
:103900000020FEF7E8F9DD20FEF7E5F90020FEF7DC
:10391000E2F9F320FEF7DFF90020FEF7DCF9E520FD
:10392000FEF7D6F90020FEF7D6F90020FEF7D3F90E
:103930000020FEF7D0F90020FEF7CDF90220FEF7B7
:10394000CAF90020FEF7C7F92920FEF7C4F90020C4
:10395000FEF7C1F93C20FEF7BEF90020FEF7BBF9E7
:103960004B20FEF7B8F90020FEF7B5F95D20FEF711
:10397000B2F90020FEF7AFF97420FEF7ACF9002091
:10398000FEF7A9F98420FEF7A6F90020FEF7A3F9B7
:103990009320FEF7A0F90020FEF79DF9A220FEF784
:1039A0009AF90020FEF797F9B320FEF794F900206A
:1039B000FEF791F9BE20FEF78EF90020FEF78BF995
:1039C000C420FEF788F90020FEF785F9CD20FEF728
:1039D00082F90020FEF77FF9D320FEF77CF9002062
:1039E000FEF779F9DC20FEF776F90020FEF773F98F
:1039F000F320FEF770F90020FEF76DF9E620FEF7E0
:103A000067F91120FEF767F90020FEF764F934200A
:103A1000FEF761F90020FEF75EF95620FEF75BF92C
:103A20000020FEF758F97620FEF755F90020FEF742
:103A300052F97720FEF74FF90020FEF74CF9662087
:103A4000FEF749F90020FEF746F98820FEF743F912
:103A50000020FEF740F99920FEF73DF90020FEF71F
:103A60003AF9BB20FEF737F90020FEF734F9992028
:103A7000FEF731F90020FEF72EF96620FEF72BF94C
:103A80000020FEF728F95520FEF725F90020FEF763
:103A900022F95520FEF71FF90020FEF71CF94520FA
:103AA000FEF719F90020FEF716F94320FEF713F987
:103AB0000020FEF710F94420FEF70DF90020FEF774
:103AC0000AF9E720FEF704F93220FEF704F9002096
:103AD000FEF701F95520FEF7FEF80020FEF7FBF88F
:103AE0007620FEF7F8F80020FEF7F5F86620FEF7DE
:103AF000F2F80020FEF7EFF86720FEF7ECF8002060
:103B0000FEF7E9F86720FEF7E6F80020FEF7E3F895
:103B10008720FEF7E0F80020FEF7DDF89920FEF799
:103B2000DAF80020FEF7D7F8BB20FEF7D4F8002023
:103B3000FEF7D1F89920FEF7CEF80020FEF7CBF87B
:103B40007720FEF7C8F80020FEF7C5F84420FEF7FE
:103B5000C2F80020FEF7BFF85620FEF7BCF80020A0
:103B6000FEF7B9F82320FEF7B6F80020FEF7B3F809
:103B70003320FEF7B0F80020FEF7ADF84520FEF741
:103B8000AAF80020FEF7A7F8E820FEF7A1F8002029
:103B9000FEF7A1F80020FEF79EF89920FEF79BF8AB
:103BA0000020FEF798F88720FEF795F80020FEF732
:103BB00092F88820FEF78FF80020FEF78CF8772027
:103BC000FEF789F80020FEF786F86620FEF783F8F6
:103BD0000020FEF780F88820FEF77DF80020FEF731
:103BE0007AF8AA20FEF777F80020FEF774F8BB20D9
:103BF000FEF771F80020FEF76EF89920FEF76BF8DB
:103C00000020FEF768F86620FEF765F80020FEF752
:103C100062F85520FEF75FF80020FEF75CF85520AB
:103C2000FEF759F80020FEF756F84420FEF753F847
:103C30000020FEF750F84420FEF74DF80020FEF774
:103C40004AF85520FEF747F80020FEF744F8E9202F
:103C5000FEF73EF8AA20FEF73EF80020FEF73BF8FC
:103C60000020FEF738F80020FEF735F80020FEF7B8
:103C70002FF8AA20FEF72FF8CF20FEF729F8002012
:103C8000FEF729F80020FEF726F80020FEF723F8BB
:103C90000020FEF720F80020FEF71DF80020FEF7B8
:103CA0001AF80020FEF717F80020FEF714F800209D
:103CB000FEF711F80020FEF70EF80020FEF70BF8D3
:103CC0000020FEF708F80020FEF705F80020FEF7B8
:103CD00002F80020FDF7FFFF0020FDF7FCFF0020A9
:103CE000FDF7F9FFF020FDF7F3FF0020FDF7F3FFEC
:103CF0005020FDF7F0FF0020FDF7EDFF0020FDF75D
:103D0000EAFF0020FDF7E7FFF320FDF7E1FF0020C9
:103D1000FDF7E1FFF920FDF7DBFF0620FDF7DBFFF4
:103D20001020FDF7D8FF2920FDF7D5FF0020FDF773
:103D3000D2FF3A20FDF7CCFF5520FDF7CCFF112034
:103D4000FDF7C6FF6420FCF7E7FC2920FDF7C0FF64
:103D50003520FDF7BDFF0020FDF7BDFF5120FDF729
:103D6000B7FFFF20FDF7B7FF5320FDF7B1FF2C2071
:103D7000FDF7B1FF5520FDF7ABFF8220FDF7ABFF4C
:103D80002C20FDF7A5FF02F0E7B8FE488088A0F5DB
:103D9000AA4110397ED155214FF47040FDF7A3FFA1
:103DA000AA214FF20100FDF79EFF52214FF20200BF
:103DB000FDF799FF08214FF20300FDF794FF012161
:103DC0004FF20400FDF78FFF0D214FF43040FDF757
:103DD0008AFF0D214BF20100FDF785FF0D214BF20B
:103DE0000200FDF780FF34214FF43640FDF77BFFE2
:103DF00034214BF20160FDF776FF34214BF2026073
:103E0000FDF771FF0D214FF43140FDF76CFF0D21DF
:103E10004BF20110FDF767FF0D214BF20210FDF789
:103E200062FF34214FF43740FDF75DFF34214BF240
:103E30000170FDF758FF34214BF20270FDF753FF7C
:103E400000214FF43240FDF74EFF00214BF20120DC
:103E5000FDF749FF00214BF20220FDF744FF24212A
:103E60004FF43840FDF73FFF24214BF60100FDF7EA
:103E70003AFF24214BF60200FDF735FF01214FF4F4
:103E80003F40FDF730FF0F214FF43340FDF72BFF8C
:103E90000F2100E0FEE34BF20130FDF724FF0F217C
:103EA0004BF20230FDF71FFF34214FF43940FDF78C
:103EB0001AFF34214BF60110FDF715FF34214BF6A4
:103EC0000210FDF710FF08214FF43540FDF70BFFFE
:103ED00008214BF20150FDF706FF08214BF202507A
:103EE000FDF701FF03214FF44240FDF7FCFE2421C2
:103EF0004FF43A40FDF7F7FE24214BF60120FDF781
:103F0000F2FE24214BF60220FDF7EDFE00214FF4D6
:103F10003C40FDF7E8FE78214BF60140FDF7E3FE5B
:103F200000214BF60240FDF7DEFE00214FF43D403C
:103F3000FDF7D9FE78214BF60150FDF7D4FE0021A4
:103F40004BF60250FDF7CFFE00214FF43E40FDF747
:103F5000CAFE64214BF60160FDF7C5FE00214FF457
:103F60005140FDF7C0FE33214DF20110FDF7BBFEBD
:103F700000214DF20210FDF7B6FE34214DF2031080
:103F8000FDF7B1FE00214DF20410FDF7ACFE3A2121
:103F90004DF20510FDF7A7FE00214DF20610FDF7CA
:103FA000A2FE4A214DF20710FDF79DFE00214DF2C1
:103FB0000810FDF798FE5C214DF20910FDF793FE05
:103FC00000214DF20A10FDF78EFE81214DF20B10FB
:103FD000FDF789FE00214DF20C10FDF784FEA621AD
:103FE0004DF20D10FDF77FFE00214DF20E10FDF792
:103FF0007AFEE5214DF20F10FDF775FE01214DF21D
:104000001010FDF770FE13214DF21110FDF76BFE3D
:1040100001214DF21210FDF766FE54214DF21310EE
:10402000FDF761FE01214DF21410FDF75CFE8221C7
:104030004DF21510FDF757FE01214DF21610FDF758
:1040400052FECA214DF21710FDF74DFE02214DF22E
:104050001810FDF748FE00214DF21910FDF743FE40
:1040600002214DF21A10FDF73EFE01214DF21B1008
:10407000FDF739FE02214DF21C10FDF734FE34210C
:104080004DF21D10FDF72FFE02214DF21E10FDF71F
:104090002AFE67214DF21F10FDF725FE02214DF289
:1040A0002010FDF720FE84214DF22110FDF71BFEAC
:1040B00002214DF22210FDF716FEA4214DF223102D
:1040C000FDF711FE02214DF22410FDF70CFEB72181
:1040D0004DF22510FDF707FE02214DF22610FDF7E7
:1040E00002FECF214DF22710FDF7FDFD02214DF21A
:1040F0002810FDF7F8FDDE214DF22910FDF7F3FD44
:1041000002214DF22A10FDF7EEFDF2214DF22B10A7
:10411000FDF7E9FD02214DF22C10FDF7E4FDFE2133
:104120004DF22D10FDF7DFFD03214DF22E10FDF7AE
:10413000DAFD10214DF22F10FDF7D5FD03214DF2D0
:104140003010FDF7D0FD33214DF23110FDF7CBFDDE
:1041500003214DF23210FDF7C6FD6D214DF23310F3
:10416000FDF7C1FD00214FF45240FDF7BCFD3321A6
:104170004DF20120FDF7B7FD00214DF20220FDF7C1
:10418000B2FD01E05E04002034214DF20320FDF772
:10419000AAFD00214DF20420FDF7A5FD3A214DF2C4
:1041A0000520FDF7A0FD00214DF20620FDF79BFD47
:1041B0004A214DF20720FDF796FD00214DF208201F
:1041C000FDF791FD5C214DF20920FDF78CFD0021EA
:1041D0004DF20A20FDF787FD81214DF20B20FDF7FE
:1041E00082FD00214DF20C20FDF77DFDA6214DF250
:1041F0000D20FDF778FD00214DF20E20FDF773FD37
:10420000E5214DF20F20FDF76EFD01214DF210204A
:10421000FDF769FD13214DF21120FDF764FD012129
:104220004DF21220FDF75FFD54214DF21320FDF7F2
:104230005AFD01214DF21420FDF755FD82214DF26A
:104240001520FDF750FD01214DF21620FDF74BFD25
:10425000CA214DF21720FDF746FD02214DF218202C
:10426000FDF741FD00214DF21920FDF73CFD022133
:104270004DF21A20FDF737FD01214DF21B20FDF70D
:1042800032FD02214DF21C20FDF72DFD34214DF2AF
:104290001D20FDF728FD02214DF21E20FDF723FD14
:1042A00067214DF21F20FDF71EFD02214DF2202057
:1042B000FDF719FD84214DF22120FDF714FD0221A7
:1042C0004DF22220FDF70FFDA4214DF22320FDF732
:1042D0000AFD02214DF22420FDF705FDB7214DF224
:1042E0002520FDF700FD02214DF22620FDF7FBFC05
:1042F000CF214DF22720FDF7F6FC02214DF22820B8
:10430000FDF7F1FCDE214DF22920FDF7ECFC022146
:104310004DF22A20FDF7E7FCF2214DF22B20FDF7AC
:10432000E2FC02214DF22C20FDF7DDFCFE214DF2D6
:104330002D20FDF7D8FC03214DF22E20FDF7D3FCF4
:1043400010214DF22F20FDF7CEFC03214DF230203D
:10435000FDF7C9FC33214DF23120FDF7C4FC0321E8
:104360004DF23220FDF7BFFC6D214DF23320FDF7F9
:10437000BAFC00214FF45340FDF7B5FC33214DF258
:104380000130FDF7B0FC00214DF20230FDF7ABFC2F
:1043900034214DF20330FDF7A6FC00214DF204302C
:1043A000FDF7A1FC3A214DF20530FDF79CFC002100
:1043B0004DF20630FDF797FC4A214DF20730FDF72C
:1043C00092FC00214DF20830FDF78DFC5C214DF28E
:1043D0000930FDF788FC00214DF20A30FDF783FC1F
:1043E00081214DF20B30FDF77EFC00214DF20C30A7
:1043F000FDF779FCA6214DF20D30FDF774FC00218C
:104400004DF20E30FDF76FFCE5214DF20F30FDF758
:104410006AFC01214DF21030FDF765FC13214DF2CD
:104420001130FDF760FC01214DF21230FDF75BFC0D
:1044300054214DF21330FDF756FC01214DF214309A
:10444000FDF751FC82214DF21530FDF74CFC0121A6
:104450004DF21630FDF747FCCA214DF21730FDF73B
:1044600042FC02214DF21830FDF73DFC00214DF2D7
:104470001930FDF738FC02214DF21A30FDF733FCFC
:1044800001214DF21B30FDF72EFC02214DF21C30B4
:10449000FDF729FC34214DF21D30FDF724FC0221EB
:1044A0004DF21E30FDF71FFC67214DF21F30FDF766
:1044B0001AFC02214DF22030FDF715FC84214DF24B
:1044C0002130FDF710FC02214DF22230FDF70BFCEC
:1044D000A4214DF22330FDF706FC02214DF22430D9
:1044E000FDF701FCB7214DF22530FDF7FCFB022161
:1044F0004DF22630FDF7F7FBCF214DF22730FDF7C7
:10450000F2FB02214DF22830FDF7EDFBDE214DF2EA
:104510002930FDF7E8FB02214DF22A30FDF7E3FBDD
:10452000F2214DF22B30FDF7DEFB02214DF22C3053
:10453000FDF7D9FBFE214DF22D30FDF7D4FB032111
:104540004DF22E30FDF7CFFB10214DF22F30FDF74D
:10455000CAFB03214DF23030FDF7C5FB33214DF28C
:104560003130FDF7C0FB03214DF23230FDF7BBFBCC
:104570006D214DF23330FDF7B6FB00214FF454406E
:10458000FDF7B1FB33214DF20140FDF7ACFB0021FB
:104590004DF20240FDF7A7FB34214DF20340FDF739
:1045A000A2FB00214DF20440FDF79DFB3A214DF2A4
:1045B0000540FDF798FB00214DF20640FDF793FB07
:1045C0004A214DF20740FDF78EFB00214DF20840D5
:1045D000FDF789FB5C214DF20940FDF784FB0021CA
:1045E0004DF20A40FDF77FFB81214DF20B40FDF7B4
:1045F0007AFB00214DF20C40FDF775FBA6214DF230
:104600000D40FDF770FB00214DF20E40FDF76BFBF6
:10461000E5214DF20F40FDF766FB01214DF2104000
:10462000FDF761FB13214DF21140FDF75CFB012109
:104630004DF21240FDF757FB54214DF21340FDF7A8
:1046400052FB01214DF21440FDF74DFB82214DF24A
:104650001540FDF748FB01214DF21640FDF743FBE5
:10466000CA214DF21740FDF73EFB02214DF21840E2
:10467000FDF739FB00214DF21940FDF734FB022113
:104680004DF21A40FDF72FFB01214DF21B40FDF7C3
:104690002AFB00E004E302214DF21C40FDF723FB5E
:1046A00034214DF21D40FDF71EFB02214DF21E404C
:1046B000FDF719FB67214DF21F40FDF714FB0221A6
:1046C0004DF22040FDF70FFB84214DF22140FDF714
:1046D0000AFB02214DF22240FDF705FBA4214DF219
:1046E0002340FDF700FB02214DF22440FDF7FBFAC9
:1046F000B7214DF22540FDF7F6FA02214DF2264092
:10470000FDF7F1FACF214DF22740FDF7ECFA022137
:104710004DF22840FDF7E7FADE214DF22940FDF782
:10472000E2FA02214DF22A40FDF7DDFAF2214DF2C4
:104730002B40FDF7D8FA02214DF22C40FDF7D3FAB9
:10474000FE214DF22D40FDF7CEFA03214DF22E4011
:10475000FDF7C9FA10214DF22F40FDF7C4FA0321ED
:104760004DF23040FDF7BFFA33214DF23140FDF7F5
:10477000BAFA03214DF23240FDF7B5FA6D214DF240
:104780003340FDF7B0FA00214FF45540FDF7ABFA86
:1047900033214DF20150FDF7A6FA00214DF20250EF
:1047A000FDF7A1FA34214DF20350FDF79CFA0021E8
:1047B0004DF20450FDF797FA3A214DF20550FDF7FE
:1047C00092FA00214DF20650FDF78DFA4A214DF282
:1047D0000750FDF788FA00214DF20850FDF783FAE3
:1047E0005C214DF20950FDF77EFA00214DF20A508E
:1047F000FDF779FA81214DF20B50FDF774FA002193
:104800004DF20C50FDF76FFAA6214DF20D50FDF759
:104810006AFA00214DF20E50FDF765FAE5214DF2DE
:104820000F50FDF760FA01214DF21050FDF75BFAD1
:1048300013214DF21150FDF756FA01214DF212509D
:10484000FDF751FA54214DF21350FDF74CFA0121B6
:104850004DF21450FDF747FA82214DF21550FDF745
:1048600042FA01214DF21650FDF73DFACA214DF2F0
:104870001750FDF738FA02214DF21850FDF733FAC0
:1048800000214DF21950FDF72EFA02214DF21A5077
:10489000FDF729FA01214DF21B50FDF724FA022100
:1048A0004DF21C50FDF71FFA34214DF21D50FDF75B
:1048B0001AFA02214DF21E50FDF715FA67214DF24A
:1048C0001F50FDF710FA02214DF22050FDF70BFAB0
:1048D00084214DF22150FDF706FA02214DF22250BB
:1048E000FDF701FAA4214DF22350FDF7FCF9022156
:1048F0004DF22450FDF7F7F9B7214DF22550FDF7A1
:10490000F2F902214DF22650FDF7EDF9CF214DF2DB
:104910002750FDF7E8F902214DF22850FDF7E3F9A1
:10492000DE214DF22950FDF7DEF902214DF22A5029
:10493000FDF7D9F9F2214DF22B50FDF7D4F9022100
:104940004DF22C50FDF7CFF9FE214DF22D50FDF721
:10495000CAF903214DF22E50FDF7C5F910214DF291
:104960002F50FDF7C0F903214DF23050FDF7BBF990
:1049700033214DF23150FDF7B6F903214DF232509B
:10498000FDF7B1F96D214DF23350FDF7ACF900217F
:104990004FF45640FDF7A7F933214DF20160FDF7C2
:1049A000A2F900214DF20260FDF79DF934214DF28C
:1049B0000360FDF798F900214DF20460FDF793F9CB
:1049C0003A214DF20560FDF78EF900214DF20660A7
:1049D000FDF789F94A214DF20760FDF784F90021BE
:1049E0004DF20860FDF77FF95C214DF20960FDF79B
:1049F0007AF900214DF20A60FDF775F981214DF237
:104A00000B60FDF770F900214DF20C60FDF76BF9BA
:104A1000A6214DF20D60FDF766F900214DF20E6002
:104A2000FDF761F9E5214DF20F60FDF75CF9012119
:104A30004DF21060FDF757F913214DF21160FDF7AB
:104A400052F901214DF21260FDF74DF954214DF25A
:104A50001360FDF748F901214DF21460FDF743F9A9
:104A600082214DF21560FDF73EF901214DF21660ED
:104A7000FDF739F9CA214DF21760FDF734F902212B
:104A80004DF21860FDF72FF900214DF21960FDF786
:104A90002AF902214DF21A60FDF725F901214DF2A4
:104AA0001B60FDF720F902214DF21C60FDF71BF998
:104AB00034214DF21D60FDF716F902214DF21E6002
:104AC000FDF711F967214DF21F60FDF70CF9022186
:104AD0004DF22060FDF707F984214DF22160FDF7CA
:104AE00002F902214DF22260FDF7FDF8A4214DF2FA
:104AF0002360FDF7F8F802214DF22460FDF7F3F88A
:104B0000B7214DF22560FDF7EEF802214DF2266047
:104B1000FDF7E9F8CF214DF22760FDF7E4F8022117
:104B20004DF22860FDF7DFF8DE214DF22960FDF738
:104B3000DAF802214DF22A60FDF7D5F8F2214DF2A4
:104B40002B60FDF7D0F802214DF22C60FDF7CBF879
:104B5000FE214DF22D60FDF7C6F803214DF22E60C7
:104B6000FDF7C1F810214DF22F60FDF7BCF80321CD
:104B70004DF23060FDF7B7F833214DF23160FDF7AB
:104B8000B2F803214DF23260FDF7ADF86D214DF220
:104B90003360FDF7A8F855214FF47040FDF7A3F8F6
:104BA000AA214FF20100FDF79EF852214FF20200B8
:104BB000FDF799F808214FF20300FDF794F8002162
:104BC0004FF20400FDF78FF8CC214FF43140FDF790
:104BD0008AF800214BF20110FDF785F805214FF40A
:104BE0003640FDF780F870214FF43740FDF77BF831
:104BF00070214BF20170FDF776F801214FF4384037
:104C0000FDF771F803214BF60100FDF76CF8032165
:104C10004BF60200FDF767F803214BF60300FDF7A2
:104C200062F802214FF43C40FDF75DF800214BF69D
:104C30000140FDF758F800214BF60240FDF753F80C
:104C4000D0214FF44940FDF74EF802214CF60110F7
:104C5000FDF749F850214CF60210FDF744F85021B9
:104C60004CF60310FDF73FF850214CF60410FDF709
:104C70003AF800214FF45450FDF735F855214FF420
:104C80006850FDF730F84FF48850FDF721F8782090
:104C9000FBF754FD4FF42450FDF71AF801F05CB90E
:104CA000FE488088A0F5134125397DD147F6F001F3
:104CB000E520FDF718F84FF480710120FDF713F897
:104CC0004FF4E0610220FDF70EF841F230010320BD
:104CD000FDF709F800210420FDF705F840F2022154
:104CE0000820FDF700F800210920FCF7FCFF002157
:104CF0000A20FCF7F8FF00210C20FCF7F4FF00214C
:104D00000D20FCF7F0FF00210F20FCF7ECFF002145
:104D10001020FCF7E8FF07211120FCF7E4FF002139
:104D20001220FCF7E0FF00211320FCF7DCFF00213C
:104D30000720FCF7D8FF41F290611020FCF7D3FF69
:104D400040F227211120FCF7CEFF9D211220FCF715
:104D5000CAFF4FF4C8511320FCF7C5FF25212920B5
:104D6000FCF7C1FF0D212B20FCF7BDFF07213020F0
:104D7000FCF7B9FF40F203313120FCF7B4FF032107
:104D80003220FCF7B0FF40F206213520FCF7ABFFE4
:104D900008213620FCF7A7FF40F206413720FCF738
:104DA000A2FF4FF4417100E058E03820FCF79BFF70
:104DB00007213920FCF797FF40F202613C20FCF705
:104DC00092FF08213D20FCF78EFF00215020FCF7C8
:104DD0008AFFEF215120FCF786FF00215220FCF7CB
:104DE00082FF40F23F115320FCF77DFF4FF4274133
:104DF0006020FCF778FF01216120FCF774FF00219F
:104E00006A20FCF770FF00218020FCF76CFF002176
:104E10008120FCF768FF00218220FCF764FF00215D
:104E20008320FCF760FF00218420FCF75CFF002159
:104E30008520FCF758FF10219020FCF754FF4FF419
:104E4000C0619220FCF74FFF40F233110720FCF7BE
:104E50004AFF22210020FCF746FF1FE78F48808889
:104E6000A0F5134128397DD141F28F01EC20FCF7E8
:104E70003AFF41F23421EF20FCF735FF4FF4807107
:104E80000120FCF730FF4FF4E0610220FCF72BFF1C
:104E900041F230010320FCF726FF00210420FCF73B
:104EA00022FF40F202210820FCF71DFF002109200B
:104EB000FCF719FF00210A20FCF715FF01210C2047
:104EC000FCF711FF00210D20FCF70DFF00210F2042
:104ED000FCF709FF00211020FCF705FF0721112036
:104EE000FCF701FF00211220FCF7FDFE002113203A
:104EF000FCF7F9FE01210720FCF7F5FE3220FBF755
:104F00000BFC41F290411020FCF7EDFE40F227210E
:104F10001120FCF7E8FE3220FBF7FEFB8A2112206D
:104F2000FCF7E1FE3220FBF7F7FB4FF4D0511320E2
:104F3000FCF7D9FE06212920FCF7D5FE0D212B20F8
:104F4000FCF7D1FE3220FBF7E7FB00212020FCF725
:104F5000CAFE00212120FCF7C6FE3220FBF7DCFB55
:104F6000002100E075E03020FCF7BDFE40F2046156
:104F70003120FCF7B8FE40F205313220FCF7B3FED9
:104F800000213520FCF7AFFE40F609413620FCF742
:104F9000AAFE4FF401713720FCF7A5FE40F2013163
:104FA0003820FCF7A0FE40F207713920FCF79BFE89
:104FB00000213C20FCF797FE40F60A213D20FCF73B
:104FC00092FE3220FBF7A8FB00215020FCF78BFE5D
:104FD000EF215120FCF787FE00215220FCF783FED1
:104FE00040F23F115320FCF77EFE4FF42741602032
:104FF000FCF779FE01216120FCF775FE00216A2093
:10500000FCF771FE00218020FCF76DFE002181205D
:10501000FCF769FE00218220FCF765FE0021832059
:10502000FCF761FE00218420FCF75DFE0021852055
:10503000FCF759FE10219020FCF755FE4FF4C0619B
:105040009220FCF750FE40F233110720FCF74BFE94
:1050500024E612488088A0F5134120397ED1084605
:10506000FCF741FE4FF480710120FCF73CFE4FF449
:10507000E0610220FCF737FE41F230010320FCF72B
:1050800032FE00210420FCF72EFE40F2022108200F
:10509000FCF729FE0021092002E000005E04002048
:1050A000FCF721FE00210A20FCF71DFE01210C2047
:1050B000FCF719FE00210D20FCF715FE00210F2042
:1050C000FCF711FE3220FBF727FB40F2011107200D
:1050D000FCF709FE3220FBF71FFB4FF4865110202E
:1050E000FCF701FE07211120FCF7FDFD4FF488714C
:1050F0001220FCF7F8FD4FF430611320FCF7F3FDAC
:1051000000212920FCF7EFFD44F210012B20FCF7D1
:10511000EAFD00215020FCF7E6FDEF215120FCF7CD
:10512000E2FD00215220FCF7DEFD40F23F1153204A
:10513000FCF7D9FD4FF41C516020FCF7D4FD012190
:105140006120FCF7D0FD00216A20FCF7CCFD002196
:105150008020FCF7C8FD0021812000E030E0FCF752
:10516000C2FD00218220FCF7BEFD00218320FCF758
:10517000BAFD00218420FCF7B6FD00218520FCF754
:10518000B2FD10219020FCF7AEFD00219220FCF72B
:10519000AAFD01219320FCF7A6FD4FF4887195200C
:1051A000FCF7A1FD00219720FCF79DFD0021982030
:1051B000FCF799FD40F273110720FCF794FD6DE5B3
:1051C000FE488088A0F5134131397DD141F21401A8
:1051D000E720FCF788FD4FF480710120FCF783FD88
:1051E0004FF400710220FCF77EFD41F238010320EC
:1051F000FCF779FD40F202210820FCF774FD002144
:105200000920FCF770FD00210A20FCF76CFD00214D
:105210000C20FCF768FD00210D20FCF764FD002147
:105220000F20FCF760FD00211020FCF75CFD07213A
:105230001120FCF758FD00211220FCF754FD00213D
:105240001320FCF750FDC820FBF766FA41F290618D
:105250001020FCF748FD40F227211120FCF743FD08
:105260003220FBF759FA0C211220FCF73CFD3220CA
:10527000FBF752FA4FF400611320FCF734FD1121C3
:105280002920FCF730FD0B212B20FCF72CFD3220D0
:10529000FBF742FA00212020FCF725FD40F23F11E8
:1052A0002120FCF720FD00213020FCF71CFD4FF4ED
:1052B00083713120FCF717FD00213220FCF713FD2C
:1052C0004FF40171352000E064E0FCF70CFD41F281
:1052D0000A613620FCF707FD40F207713720FCF722
:1052E00002FD4FF483713820FCF7FDFC40F207719A
:1052F0003920FCF7F8FC40F202413C20FCF7F3FCBB
:1053000040F60F413D20FCF7EEFC00215020FCF759
:10531000EAFCEF215120FCF7E6FC00215220FCF7CB
:10532000E2FC40F23F115320FCF7DDFC4FF41C512E
:105330006020FCF7D8FC01216120FCF7D4FC00219F
:105340006A20FCF7D0FC00218020FCF7CCFC002177
:105350008120FCF7C8FC00218220FCF7C4FC00215E
:105360008320FCF7C0FC00218420FCF7BCFC00215A
:105370008520FCF7B8FC10219020FCF7B4FC4FF41A
:10538000C0619220FCF7AFFC40F233110720FCF71C
:10539000AAFC83E489488088A0F5A84108397DD11A
:1053A0004FF480710120FCF79EFC4FF4E061022075
:1053B000FCF799FC41F230010320FCF794FC00213A
:1053C0000420FCF790FC40F207210820FCF78BFC3E
:1053D00000210920FCF787FC00210A20FCF783FC50
:1053E00000210C20FCF77FFC00210D20FCF77BFC4A
:1053F00000210F20FCF777FC1420FBF78DF941F218
:10540000B0611020FCF76FFC01211120FCF76BFC50
:1054100001211720FCF767FC4FF49C711220FCF768
:1054200062FC4FF400611320FCF75DFC0921292088
:10543000FCF759FC09212A20FCF755FC0021A42087
:10544000FCF751FC00215020FCF74DFCEF215120CE
:10545000FCF749FC00215220FCF745FC40F23F11CB
:105460005320FCF740FC4FF41C516020FCF73BFC40
:1054700001216120FCF737FC00216A20FCF733FC96
:1054800000218020FCF72FFC00218120FCF72BFC61
:1054900000218220FCF727FC002100E024E083208B
:1054A000FCF721FC00218420FCF71DFC0021852055
:1054B000FCF719FC13219020FCF715FC0021922029
:1054C000FCF711FC03219320FCF70DFC4FF48871CD
:1054D0009520FCF708FC40F273110720FCF703FC51
:1054E0003220FBF719F9B8E434488088A0F5A851B8
:1054F000053965D10720FCF7F6FB3220FBF70CF9E4
:105500004FF48E711220FCF7EEFB0121A420FCF772
:10551000EAFB0F210820FCF7E6FB08210A20FCF734
:10552000E2FB08210D20FCF7DEFB40F20771302082
:10553000FCF7D9FB07213120FCF7D5FB40F20361D2
:105540003220FCF7D0FB4FF4E0613320FCF7CBFBBB
:1055500040F202213420FCF7C6FB02213520FCF783
:10556000C2FB41F60F713620FCF7BDFB40F207711C
:105570003720FCF7B8FB00213820FCF7B4FB0021F2
:105580003920FCF7B0FB40F207713A20FCF7ABFB87
:1055900000213B20FCF7A7FB07213C20FCF7A3FBE5
:1055A00000213D20FCF79FFB3220FBF7B5F80121DD
:1055B0000720FCF798FB0121172002E05E04002081
:1055C000AEE0FCF790FB3220FBF7A6F84FF4BD519C
:1055D0001020FCF788FB40F217211120FCF783FB19
:1055E0004FF48F711220FCF77EFB4FF47061132093
:1055F000FCF779FB00212A20FCF775FB0A21292002
:10560000FCF771FB4FF49F711220FCF76CFB00213B
:105610005020FCF768FBEF215120FCF764FB0021D0
:105620005220FCF760FB40F23F115320FCF75BFB7C
:105630004FF41C516020FCF756FB01216120FCF760
:1056400052FB00216A20FCF74EFB00218020FCF772
:105650004AFB00218120FCF746FB00218220FCF759
:1056600042FB00218320FCF73EFB00218420FCF755
:105670003AFB00218520FCF736FB13219020FCF734
:1056800032FB4FF440719220FCF72DFB0521932053
:10569000FCF729FB00219520FCF725FB0021972032
:1056A000FCF721FB00219820FCF71DFB4FF48071D3
:1056B0000120FCF718FB4FF4E0610220FCF713FB1C
:1056C00041F238010320FCF70EFB00210420FCF717
:1056D0000AFB00210C20FCF706FB00210F20FCF741
:1056E00002FB00212020FCF7FEFA00212120FCF71C
:1056F000FAFA21210720FCF7F6FA1420FBF70CF840
:1057000061210720FCF7EFFA1420FBF705F840F2BF
:1057100073110720FCF7E7FA1420FAF7FDFF97E46E
:10572000FE488088A0F5354105397DD10846FCF753
:10573000DAFA00210846FCF7D6FA00210846FCF701
:10574000D2FA00210846FCF7CEFA0121A420FCF78A
:10575000CAFA1420FAF7E0FF4FF41C516020FCF75E
:10576000C2FA40F202210820FCF7BDFA4FF405719D
:105770003020FCF7B8FA43F215713120FCF7B3FA88
:1057800040F204613220FCF7AEFA40F61661332095
:10579000FCF7A9FA42F211213420FCF7A4FA4FF4E5
:1057A000A8513520FCF79FFA48F207513620FCF744
:1057B0009AFA41F207413720FCF795FA41F203418A
:1057C0003820FCF790FA20213920FCF78CFA1A21B6
:1057D0009020FCF788FA00211020FCF784FA0721BA
:1057E0001120FCF780FA00211220FCF77CFA00213E
:1057F0001320FCF778FA1420FAF78EFF4FF4E661D5
:105800001020FCF770FA40F237111120FCF76BFA08
:105810001420FAF781FF4FF4DC711220FCF763FAD1
:105820001420FAF779FF00E083E04FF47061132051
:10583000FCF759FA80212A20FCF755FA4821292043
:10584000FCF751FA1420FAF767FF4FF4807101203A
:10585000FCF749FA4FF4E0610220FCF744FA41F208
:1058600038010320FCF73FFA40F202210820FCF740
:105870003AFA00210A20FCF736FA00210C20FCF746
:1058800032FA00210D20FCF72EFA30210E20FCF711
:105890002AFA00215020FCF726FAEF215120FCF7CC
:1058A00022FA00215220FCF71EFA40F23F11532049
:1058B000FCF719FA4FF41C516020FCF714FA01218F
:1058C0006120FCF710FA00216A20FCF70CFA112184
:1058D0009020FCF708FA4FF4C0619220FCF703FA1D
:1058E00040F202419320FCF7FEF902219420FCF7DC
:1058F000FAF91420FAF710FF01210720FCF7F3F959
:105900001420FAF709FF61210720FCF7ECF940F2B7
:1059100073110720FCF7E7F900212020FCF7E3F9D9
:1059200000212120FCF7DFF922210020FCF7DBF920
:1059300012E37A488088A0F5454105397DD10846B3
:10594000FCF7D1F900210846FCF7CDF91420FAF74D
:10595000E3FE00210846FCF7C6F900210846FCF7E3
:10596000C2F900210846FCF7BEF900210846FCF701
:10597000BAF90121A420FCF7B6F91420FAF7CCFEFD
:105980004FF41C516020FCF7AEF940F606010820E8
:10599000FCF7A9F940F203713020FCF7A4F90121CA
:1059A0003120FCF7A0F904213220FCF79CF94FF4D8
:1059B00081713320FCF797F94FF440713420FCF7E4
:1059C00092F940F203113520FCF78DF91F213620A2
:1059D000FCF789F940F203713720FCF784F90121C3
:1059E0003820FCF780F904213920FCF77CF91521D7
:1059F0009020FCF778F94FF482611020FCF773F9DE
:105A000040F247211120FCF76EF94FF4DE711220AD
:105A1000FCF769F94FF460611320FCF764F9782012
:105A2000FAF77AFE4FF480710120FCF75CF94FF42D
:105A300000710220FCF757F900E050E041F230011C
:105A40000320FCF750F908210A20FCF74CF900214B
:105A50000C20FCF748F920210E20FCF744F9002126
:105A60000F20FCF740F900212020FCF73CF9002131
:105A70002120FCF738F93D212A20FCF734F91420C5
:105A8000FAF74AFE2D212920FCF72DF9002150209C
:105A9000FCF729F94DF2EF015120FCF724F9002120
:105AA0005220FCF720F940F23F115320FCF71BF97C
:105AB00000216120FCF717F900216A20FCF713F997
:105AC0004FF440719220FCF70EF905219320FCF76A
:105AD0000AF94FF480710720FCF705F93CE20F4802
